{
  "_format": "hh-sol-artifact-1",
  "contractName": "MediToken",
  "sourceName": "contracts/MediToken.sol",
  "abi": [
    {
      "inputs": [],
      "stateMutability": "nonpayable",
      "type": "constructor"
    },
    {
      "inputs": [
        {
          "internalType": "address",
          "name": "spender",
          "type": "address"
        },
        {
          "internalType": "uint256",
          "name": "allowance",
          "type": "uint256"
        },
        {
          "internalType": "uint256",
          "name": "needed",
          "type": "uint256"
        }
      ],
      "name": "ERC20InsufficientAllowance",
      "type": "error"
    },
    {
      "inputs": [
        {
          "internalType": "address",
          "name": "sender",
          "type": "address"
        },
        {
          "internalType": "uint256",
          "name": "balance",
          "type": "uint256"
        },
        {
          "internalType": "uint256",
          "name": "needed",
          "type": "uint256"
        }
      ],
      "name": "ERC20InsufficientBalance",
      "type": "error"
    },
    {
      "inputs": [
        {
          "internalType": "address",
          "name": "approver",
          "type": "address"
        }
      ],
      "name": "ERC20InvalidApprover",
      "type": "error"
    },
    {
      "inputs": [
        {
          "internalType": "address",
          "name": "receiver",
          "type": "address"
        }
      ],
      "name": "ERC20InvalidReceiver",
      "type": "error"
    },
    {
      "inputs": [
        {
          "internalType": "address",
          "name": "sender",
          "type": "address"
        }
      ],
      "name": "ERC20InvalidSender",
      "type": "error"
    },
    {
      "inputs": [
        {
          "internalType": "address",
          "name": "spender",
          "type": "address"
        }
      ],
      "name": "ERC20InvalidSpender",
      "type": "error"
    },
    {
      "inputs": [
        {
          "internalType": "address",
          "name": "owner",
          "type": "address"
        }
      ],
      "name": "OwnableInvalidOwner",
      "type": "error"
    },
    {
      "inputs": [
        {
          "internalType": "address",
          "name": "account",
          "type": "address"
        }
      ],
      "name": "OwnableUnauthorizedAccount",
      "type": "error"
    },
    {
      "anonymous": false,
      "inputs": [
        {
          "indexed": true,
          "internalType": "address",
          "name": "owner",
          "type": "address"
        },
        {
          "indexed": true,
          "internalType": "address",
          "name": "spender",
          "type": "address"
        },
        {
          "indexed": false,
          "internalType": "uint256",
          "name": "value",
          "type": "uint256"
        }
      ],
      "name": "Approval",
      "type": "event"
    },
    {
      "anonymous": false,
      "inputs": [
        {
          "indexed": true,
          "internalType": "address",
          "name": "minter",
          "type": "address"
        }
      ],
      "name": "MinterAdded",
      "type": "event"
    },
    {
      "anonymous": false,
      "inputs": [
        {
          "indexed": true,
          "internalType": "address",
          "name": "minter",
          "type": "address"
        }
      ],
      "name": "MinterRemoved",
      "type": "event"
    },
    {
      "anonymous": false,
      "inputs": [
        {
          "indexed": true,
          "internalType": "address",
          "name": "previousOwner",
          "type": "address"
        },
        {
          "indexed": true,
          "internalType": "address",
          "name": "newOwner",
          "type": "address"
        }
      ],
      "name": "OwnershipTransferred",
      "type": "event"
    },
    {
      "anonymous": false,
      "inputs": [
        {
          "indexed": true,
          "internalType": "address",
          "name": "from",
          "type": "address"
        },
        {
          "indexed": true,
          "internalType": "address",
          "name": "to",
          "type": "address"
        },
        {
          "indexed": false,
          "internalType": "uint256",
          "name": "value",
          "type": "uint256"
        }
      ],
      "name": "Transfer",
      "type": "event"
    },
    {
      "inputs": [],
      "name": "MAX_SUPPLY",
      "outputs": [
        {
          "internalType": "uint256",
          "name": "",
          "type": "uint256"
        }
      ],
      "stateMutability": "view",
      "type": "function"
    },
    {
      "inputs": [
        {
          "internalType": "address",
          "name": "_minter",
          "type": "address"
        }
      ],
      "name": "addMinter",
      "outputs": [],
      "stateMutability": "nonpayable",
      "type": "function"
    },
    {
      "inputs": [
        {
          "internalType": "address",
          "name": "owner",
          "type": "address"
        },
        {
          "internalType": "address",
          "name": "spender",
          "type": "address"
        }
      ],
      "name": "allowance",
      "outputs": [
        {
          "internalType": "uint256",
          "name": "",
          "type": "uint256"
        }
      ],
      "stateMutability": "view",
      "type": "function"
    },
    {
      "inputs": [
        {
          "internalType": "address",
          "name": "spender",
          "type": "address"
        },
        {
          "internalType": "uint256",
          "name": "value",
          "type": "uint256"
        }
      ],
      "name": "approve",
      "outputs": [
        {
          "internalType": "bool",
          "name": "",
          "type": "bool"
        }
      ],
      "stateMutability": "nonpayable",
      "type": "function"
    },
    {
      "inputs": [
        {
          "internalType": "address",
          "name": "account",
          "type": "address"
        }
      ],
      "name": "balanceOf",
      "outputs": [
        {
          "internalType": "uint256",
          "name": "",
          "type": "uint256"
        }
      ],
      "stateMutability": "view",
      "type": "function"
    },
    {
      "inputs": [
        {
          "internalType": "uint256",
          "name": "amount",
          "type": "uint256"
        }
      ],
      "name": "burn",
      "outputs": [],
      "stateMutability": "nonpayable",
      "type": "function"
    },
    {
      "inputs": [],
      "name": "decimals",
      "outputs": [
        {
          "internalType": "uint8",
          "name": "",
          "type": "uint8"
        }
      ],
      "stateMutability": "view",
      "type": "function"
    },
    {
      "inputs": [
        {
          "internalType": "address",
          "name": "to",
          "type": "address"
        },
        {
          "internalType": "uint256",
          "name": "amount",
          "type": "uint256"
        }
      ],
      "name": "mint",
      "outputs": [],
      "stateMutability": "nonpayable",
      "type": "function"
    },
    {
      "inputs": [
        {
          "internalType": "address",
          "name": "",
          "type": "address"
        }
      ],
      "name": "minters",
      "outputs": [
        {
          "internalType": "bool",
          "name": "",
          "type": "bool"
        }
      ],
      "stateMutability": "view",
      "type": "function"
    },
    {
      "inputs": [],
      "name": "name",
      "outputs": [
        {
          "internalType": "string",
          "name": "",
          "type": "string"
        }
      ],
      "stateMutability": "view",
      "type": "function"
    },
    {
      "inputs": [],
      "name": "owner",
      "outputs": [
        {
          "internalType": "address",
          "name": "",
          "type": "address"
        }
      ],
      "stateMutability": "view",
      "type": "function"
    },
    {
      "inputs": [
        {
          "internalType": "address",
          "name": "_minter",
          "type": "address"
        }
      ],
      "name": "removeMinter",
      "outputs": [],
      "stateMutability": "nonpayable",
      "type": "function"
    },
    {
      "inputs": [],
      "name": "renounceOwnership",
      "outputs": [],
      "stateMutability": "nonpayable",
      "type": "function"
    },
    {
      "inputs": [],
      "name": "symbol",
      "outputs": [
        {
          "internalType": "string",
          "name": "",
          "type": "string"
        }
      ],
      "stateMutability": "view",
      "type": "function"
    },
    {
      "inputs": [],
      "name": "totalSupply",
      "outputs": [
        {
          "internalType": "uint256",
          "name": "",
          "type": "uint256"
        }
      ],
      "stateMutability": "view",
      "type": "function"
    },
    {
      "inputs": [
        {
          "internalType": "address",
          "name": "to",
          "type": "address"
        },
        {
          "internalType": "uint256",
          "name": "value",
          "type": "uint256"
        }
      ],
      "name": "transfer",
      "outputs": [
        {
          "internalType": "bool",
          "name": "",
          "type": "bool"
        }
      ],
      "stateMutability": "nonpayable",
      "type": "function"
    },
    {
      "inputs": [
        {
          "internalType": "address",
          "name": "from",
          "type": "address"
        },
        {
          "internalType": "address",
          "name": "to",
          "type": "address"
        },
        {
          "internalType": "uint256",
          "name": "value",
          "type": "uint256"
        }
      ],
      "name": "transferFrom",
      "outputs": [
        {
          "internalType": "bool",
          "name": "",
          "type": "bool"
        }
      ],
      "stateMutability": "nonpayable",
      "type": "function"
    },
    {
      "inputs": [
        {
          "internalType": "address",
          "name": "newOwner",
          "type": "address"
        }
      ],
      "name": "transferOwnership",
      "outputs": [],
      "stateMutability": "nonpayable",
      "type": "function"
    }
  ],
  "bytecode": "0x60806040523480156200001157600080fd5b50336040518060400160405280600f81526020016e26b2b234aa393ab9ba102a37b5b2b760891b815250604051806040016040528060048152602001634d45444960e01b815250816003908162000069919062000355565b50600462000078828262000355565b5050506001600160a01b038116620000ab57604051631e4fbdf760e01b8152600060048201526024015b60405180910390fd5b620000b681620000ed565b50620000cd3369152d02c7e14af68000006200013f565b336000908152600660205260409020805460ff1916600117905562000449565b600580546001600160a01b038381166001600160a01b0319831681179093556040519116919082907f8be0079c531659141344cd1fd0a4f28419497f9722a3daafe3b4186f6b6457e090600090a35050565b6001600160a01b0382166200016b5760405163ec442f0560e01b815260006004820152602401620000a2565b62000179600083836200017d565b5050565b6001600160a01b038316620001ac578060026000828254620001a0919062000421565b90915550620002209050565b6001600160a01b03831660009081526020819052604090205481811015620002015760405163391434e360e21b81526001600160a01b03851660048201526024810182905260448101839052606401620000a2565b6001600160a01b03841660009081526020819052604090209082900390555b6001600160a01b0382166200023e576002805482900390556200025d565b6001600160a01b03821660009081526020819052604090208054820190555b816001600160a01b0316836001600160a01b03167fddf252ad1be2c89b69c2b068fc378daa952ba7f163c4a11628f55a4df523b3ef83604051620002a391815260200190565b60405180910390a3505050565b634e487b7160e01b600052604160045260246000fd5b600181811c90821680620002db57607f821691505b602082108103620002fc57634e487b7160e01b600052602260045260246000fd5b50919050565b601f8211156200035057600081815260208120601f850160051c810160208610156200032b5750805b601f850160051c820191505b818110156200034c5782815560010162000337565b5050505b505050565b81516001600160401b03811115620003715762000371620002b0565b6200038981620003828454620002c6565b8462000302565b602080601f831160018114620003c15760008415620003a85750858301515b600019600386901b1c1916600185901b1785556200034c565b600085815260208120601f198616915b82811015620003f257888601518255948401946001909101908401620003d1565b5085821015620004115787850151600019600388901b60f8161c191681555b5050505050600190811b01905550565b808201808211156200044357634e487b7160e01b600052601160045260246000fd5b92915050565b610b2080620004596000396000f3fe608060405234801561001057600080fd5b50600436106101165760003560e01c806370a08231116100a2578063983b2d5611610071578063983b2d5614610230578063a9059cbb14610243578063dd62ed3e14610256578063f2fde38b1461028f578063f46eccc4146102a257600080fd5b806370a08231146101dc578063715018a6146102055780638da5cb5b1461020d57806395d89b411461022857600080fd5b80633092afd5116100e95780633092afd514610181578063313ce5671461019657806332cb6b0c146101a557806340c10f19146101b657806342966c68146101c957600080fd5b806306fdde031461011b578063095ea7b31461013957806318160ddd1461015c57806323b872dd1461016e575b600080fd5b6101236102c5565b6040516101309190610951565b60405180910390f35b61014c6101473660046109bb565b610357565b6040519015158152602001610130565b6002545b604051908152602001610130565b61014c61017c3660046109e5565b610371565b61019461018f366004610a21565b610395565b005b60405160128152602001610130565b61016069d3c21bcecceda100000081565b6101946101c43660046109bb565b6103e6565b6101946101d7366004610a43565b6104aa565b6101606101ea366004610a21565b6001600160a01b031660009081526020819052604090205490565b6101946104b7565b6005546040516001600160a01b039091168152602001610130565b6101236104cb565b61019461023e366004610a21565b6104da565b61014c6102513660046109bb565b61052e565b610160610264366004610a5c565b6001600160a01b03918216600090815260016020908152604080832093909416825291909152205490565b61019461029d366004610a21565b61053c565b61014c6102b0366004610a21565b60066020526000908152604090205460ff1681565b6060600380546102d490610a8f565b80601f016020809104026020016040519081016040528092919081815260200182805461030090610a8f565b801561034d5780601f106103225761010080835404028352916020019161034d565b820191906000526020600020905b81548152906001019060200180831161033057829003601f168201915b5050505050905090565b600033610365818585610577565b60019150505b92915050565b60003361037f858285610589565b61038a858585610608565b506001949350505050565b61039d610667565b6001600160a01b038116600081815260066020526040808220805460ff19169055517fe94479a9f7e1952cc78f2d6baab678adc1b772d936c6583def489e524cb666929190a250565b3360009081526006602052604090205460ff166104395760405162461bcd60e51b815260206004820152600c60248201526b2737ba10309036b4b73a32b960a11b60448201526064015b60405180910390fd5b69d3c21bcecceda10000008161044e60025490565b6104589190610ac9565b111561049c5760405162461bcd60e51b815260206004820152601360248201527213585e081cdd5c1c1b1e48195e18d959591959606a1b6044820152606401610430565b6104a68282610694565b5050565b6104b433826106ca565b50565b6104bf610667565b6104c96000610700565b565b6060600480546102d490610a8f565b6104e2610667565b6001600160a01b038116600081815260066020526040808220805460ff19166001179055517f6ae172837ea30b801fbfcdd4108aa1d5bf8ff775444fd70256b44e6bf3dfc3f69190a250565b600033610365818585610608565b610544610667565b6001600160a01b03811661056e57604051631e4fbdf760e01b815260006004820152602401610430565b6104b481610700565b6105848383836001610752565b505050565b6001600160a01b0383811660009081526001602090815260408083209386168352929052205460001981101561060257818110156105f357604051637dc7a0d960e11b81526001600160a01b03841660048201526024810182905260448101839052606401610430565b61060284848484036000610752565b50505050565b6001600160a01b03831661063257604051634b637e8f60e11b815260006004820152602401610430565b6001600160a01b03821661065c5760405163ec442f0560e01b815260006004820152602401610430565b610584838383610827565b6005546001600160a01b031633146104c95760405163118cdaa760e01b8152336004820152602401610430565b6001600160a01b0382166106be5760405163ec442f0560e01b815260006004820152602401610430565b6104a660008383610827565b6001600160a01b0382166106f457604051634b637e8f60e11b815260006004820152602401610430565b6104a682600083610827565b600580546001600160a01b038381166001600160a01b0319831681179093556040519116919082907f8be0079c531659141344cd1fd0a4f28419497f9722a3daafe3b4186f6b6457e090600090a35050565b6001600160a01b03841661077c5760405163e602df0560e01b815260006004820152602401610430565b6001600160a01b0383166107a657604051634a1406b160e11b815260006004820152602401610430565b6001600160a01b038085166000908152600160209081526040808320938716835292905220829055801561060257826001600160a01b0316846001600160a01b03167f8c5be1e5ebec7d5bd14f71427d1e84f3dd0314c0f7b2291e5b200ac8c7c3b9258460405161081991815260200190565b60405180910390a350505050565b6001600160a01b0383166108525780600260008282546108479190610ac9565b909155506108c49050565b6001600160a01b038316600090815260208190526040902054818110156108a55760405163391434e360e21b81526001600160a01b03851660048201526024810182905260448101839052606401610430565b6001600160a01b03841660009081526020819052604090209082900390555b6001600160a01b0382166108e0576002805482900390556108ff565b6001600160a01b03821660009081526020819052604090208054820190555b816001600160a01b0316836001600160a01b03167fddf252ad1be2c89b69c2b068fc378daa952ba7f163c4a11628f55a4df523b3ef8360405161094491815260200190565b60405180910390a3505050565b600060208083528351808285015260005b8181101561097e57858101830151858201604001528201610962565b506000604082860101526040601f19601f8301168501019250505092915050565b80356001600160a01b03811681146109b657600080fd5b919050565b600080604083850312156109ce57600080fd5b6109d78361099f565b946020939093013593505050565b6000806000606084860312156109fa57600080fd5b610a038461099f565b9250610a116020850161099f565b9150604084013590509250925092565b600060208284031215610a3357600080fd5b610a3c8261099f565b9392505050565b600060208284031215610a5557600080fd5b5035919050565b60008060408385031215610a6f57600080fd5b610a788361099f565b9150610a866020840161099f565b90509250929050565b600181811c90821680610aa357607f821691505b602082108103610ac357634e487b7160e01b600052602260045260246000fd5b50919050565b8082018082111561036b57634e487b7160e01b600052601160045260246000fdfea2646970667358221220f504ac6ab370b5e2ca670529a63d9544d2ba080144920b3efdb747602a46410364736f6c63430008140033",
  "linkReferences": {},
  "deployedLinkReferences": {}
}