{
  "_format": "hh-sol-artifact-1",
  "contractName": "MedicineRegistry",
  "sourceName": "contracts/MedicineRegistry.sol",
  "abi": [
    {
      "inputs": [
        {
          "internalType": "address",
          "name": "_mediToken",
          "type": "address"
        }
      ],
      "stateMutability": "nonpayable",
      "type": "constructor"
    },
    {
      "inputs": [],
      "name": "AccessControlBadConfirmation",
      "type": "error"
    },
    {
      "inputs": [
        {
          "internalType": "address",
          "name": "account",
          "type": "address"
        },
        {
          "internalType": "bytes32",
          "name": "neededRole",
          "type": "bytes32"
        }
      ],
      "name": "AccessControlUnauthorizedAccount",
      "type": "error"
    },
    {
      "inputs": [],
      "name": "ECDSAInvalidSignature",
      "type": "error"
    },
    {
      "inputs": [
        {
          "internalType": "uint256",
          "name": "length",
          "type": "uint256"
        }
      ],
      "name": "ECDSAInvalidSignatureLength",
      "type": "error"
    },
    {
      "inputs": [
        {
          "internalType": "bytes32",
          "name": "s",
          "type": "bytes32"
        }
      ],
      "name": "ECDSAInvalidSignatureS",
      "type": "error"
    },
    {
      "inputs": [],
      "name": "ReentrancyGuardReentrantCall",
      "type": "error"
    },
    {
      "anonymous": false,
      "inputs": [
        {
          "indexed": true,
          "internalType": "string",
          "name": "batchId",
          "type": "string"
        },
        {
          "indexed": false,
          "internalType": "uint256",
          "name": "timestamp",
          "type": "uint256"
        }
      ],
      "name": "BatchFullyVerified",
      "type": "event"
    },
    {
      "anonymous": false,
      "inputs": [
        {
          "indexed": true,
          "internalType": "string",
          "name": "batchId",
          "type": "string"
        },
        {
          "indexed": true,
          "internalType": "address",
          "name": "manufacturer",
          "type": "address"
        },
        {
          "indexed": false,
          "internalType": "uint256",
          "name": "participantCount",
          "type": "uint256"
        },
        {
          "indexed": false,
          "internalType": "uint256",
          "name": "timestamp",
          "type": "uint256"
        }
      ],
      "name": "BatchRegistered",
      "type": "event"
    },
    {
      "anonymous": false,
      "inputs": [
        {
          "indexed": true,
          "internalType": "string",
          "name": "batchId",
          "type": "string"
        },
        {
          "indexed": true,
          "internalType": "address",
          "name": "verifier",
          "type": "address"
        },
        {
          "indexed": false,
          "internalType": "enum MedicineRegistry.ParticipantRole",
          "name": "role",
          "type": "uint8"
        },
        {
          "indexed": false,
          "internalType": "uint256",
          "name": "verificationNumber",
          "type": "uint256"
        },
        {
          "indexed": false,
          "internalType": "uint256",
          "name": "totalRequired",
          "type": "uint256"
        }
      ],
      "name": "BatchVerified",
      "type": "event"
    },
    {
      "anonymous": false,
      "inputs": [
        {
          "indexed": true,
          "internalType": "string",
          "name": "batchId",
          "type": "string"
        },
        {
          "indexed": true,
          "internalType": "address",
          "name": "participant",
          "type": "address"
        },
        {
          "indexed": false,
          "internalType": "enum MedicineRegistry.ParticipantRole",
          "name": "role",
          "type": "uint8"
        }
      ],
      "name": "ParticipantAdded",
      "type": "event"
    },
    {
      "anonymous": false,
      "inputs": [
        {
          "indexed": true,
          "internalType": "string",
          "name": "batchId",
          "type": "string"
        },
        {
          "indexed": true,
          "internalType": "address",
          "name": "customer",
          "type": "address"
        },
        {
          "indexed": false,
          "internalType": "uint256",
          "name": "amount",
          "type": "uint256"
        },
        {
          "indexed": false,
          "internalType": "uint256",
          "name": "timestamp",
          "type": "uint256"
        }
      ],
      "name": "RewardClaimed",
      "type": "event"
    },
    {
      "anonymous": false,
      "inputs": [
        {
          "indexed": true,
          "internalType": "bytes32",
          "name": "role",
          "type": "bytes32"
        },
        {
          "indexed": true,
          "internalType": "bytes32",
          "name": "previousAdminRole",
          "type": "bytes32"
        },
        {
          "indexed": true,
          "internalType": "bytes32",
          "name": "newAdminRole",
          "type": "bytes32"
        }
      ],
      "name": "RoleAdminChanged",
      "type": "event"
    },
    {
      "anonymous": false,
      "inputs": [
        {
          "indexed": true,
          "internalType": "bytes32",
          "name": "role",
          "type": "bytes32"
        },
        {
          "indexed": true,
          "internalType": "address",
          "name": "account",
          "type": "address"
        },
        {
          "indexed": true,
          "internalType": "address",
          "name": "sender",
          "type": "address"
        }
      ],
      "name": "RoleGranted",
      "type": "event"
    },
    {
      "anonymous": false,
      "inputs": [
        {
          "indexed": true,
          "internalType": "bytes32",
          "name": "role",
          "type": "bytes32"
        },
        {
          "indexed": true,
          "internalType": "address",
          "name": "account",
          "type": "address"
        },
        {
          "indexed": true,
          "internalType": "address",
          "name": "sender",
          "type": "address"
        }
      ],
      "name": "RoleRevoked",
      "type": "event"
    },
    {
      "anonymous": false,
      "inputs": [
        {
          "indexed": true,
          "internalType": "string",
          "name": "batchId",
          "type": "string"
        },
        {
          "indexed": true,
          "internalType": "address",
          "name": "attemptedVerifier",
          "type": "address"
        },
        {
          "indexed": false,
          "internalType": "string",
          "name": "reason",
          "type": "string"
        }
      ],
      "name": "VerificationFailed",
      "type": "event"
    },
    {
      "inputs": [],
      "name": "CUSTOMER_REWARD",
      "outputs": [
        {
          "internalType": "uint256",
          "name": "",
          "type": "uint256"
        }
      ],
      "stateMutability": "view",
      "type": "function"
    },
    {
      "inputs": [],
      "name": "DEFAULT_ADMIN_ROLE",
      "outputs": [
        {
          "internalType": "bytes32",
          "name": "",
          "type": "bytes32"
        }
      ],
      "stateMutability": "view",
      "type": "function"
    },
    {
      "inputs": [],
      "name": "MANUFACTURER_ROLE",
      "outputs": [
        {
          "internalType": "bytes32",
          "name": "",
          "type": "bytes32"
        }
      ],
      "stateMutability": "view",
      "type": "function"
    },
    {
      "inputs": [],
      "name": "MAX_PARTICIPANTS",
      "outputs": [
        {
          "internalType": "uint256",
          "name": "",
          "type": "uint256"
        }
      ],
      "stateMutability": "view",
      "type": "function"
    },
    {
      "inputs": [],
      "name": "VERIFIER_ROLE",
      "outputs": [
        {
          "internalType": "bytes32",
          "name": "",
          "type": "bytes32"
        }
      ],
      "stateMutability": "view",
      "type": "function"
    },
    {
      "inputs": [
        {
          "internalType": "string",
          "name": "",
          "type": "string"
        }
      ],
      "name": "batches",
      "outputs": [
        {
          "internalType": "address",
          "name": "manufacturer",
          "type": "address"
        },
        {
          "internalType": "string",
          "name": "batchId",
          "type": "string"
        },
        {
          "internalType": "string",
          "name": "drugName",
          "type": "string"
        },
        {
          "internalType": "string",
          "name": "ingredients",
          "type": "string"
        },
        {
          "internalType": "uint256",
          "name": "expiryDate",
          "type": "uint256"
        },
        {
          "internalType": "uint256",
          "name": "registeredAt",
          "type": "uint256"
        },
        {
          "internalType": "uint256",
          "name": "requiredVerifications",
          "type": "uint256"
        },
        {
          "internalType": "uint256",
          "name": "completedVerifications",
          "type": "uint256"
        },
        {
          "internalType": "bool",
          "name": "rewardClaimed",
          "type": "bool"
        },
        {
          "internalType": "address",
          "name": "rewardClaimant",
          "type": "address"
        },
        {
          "internalType": "uint256",
          "name": "rewardClaimedAt",
          "type": "uint256"
        },
        {
          "internalType": "bool",
          "name": "exists",
          "type": "bool"
        },
        {
          "internalType": "bool",
          "name": "isFullyVerified",
          "type": "bool"
        }
      ],
      "stateMutability": "view",
      "type": "function"
    },
    {
      "inputs": [
        {
          "internalType": "string",
          "name": "_batchId",
          "type": "string"
        },
        {
          "internalType": "address",
          "name": "_participant",
          "type": "address"
        }
      ],
      "name": "canVerifyBatch",
      "outputs": [
        {
          "internalType": "bool",
          "name": "canVerify",
          "type": "bool"
        },
        {
          "internalType": "bool",
          "name": "alreadyVerified",
          "type": "bool"
        }
      ],
      "stateMutability": "view",
      "type": "function"
    },
    {
      "inputs": [
        {
          "internalType": "string",
          "name": "_batchId",
          "type": "string"
        }
      ],
      "name": "claimCustomerReward",
      "outputs": [],
      "stateMutability": "nonpayable",
      "type": "function"
    },
    {
      "inputs": [
        {
          "internalType": "string",
          "name": "_batchId",
          "type": "string"
        }
      ],
      "name": "getBatchStatus",
      "outputs": [
        {
          "internalType": "bool",
          "name": "exists",
          "type": "bool"
        },
        {
          "internalType": "bool",
          "name": "isFullyVerified",
          "type": "bool"
        },
        {
          "internalType": "bool",
          "name": "rewardClaimed",
          "type": "bool"
        },
        {
          "internalType": "uint256",
          "name": "completedVerifications",
          "type": "uint256"
        },
        {
          "internalType": "uint256",
          "name": "requiredVerifications",
          "type": "uint256"
        },
        {
          "internalType": "address",
          "name": "rewardClaimant",
          "type": "address"
        }
      ],
      "stateMutability": "view",
      "type": "function"
    },
    {
      "inputs": [
        {
          "internalType": "bytes32",
          "name": "role",
          "type": "bytes32"
        }
      ],
      "name": "getRoleAdmin",
      "outputs": [
        {
          "internalType": "bytes32",
          "name": "",
          "type": "bytes32"
        }
      ],
      "stateMutability": "view",
      "type": "function"
    },
    {
      "inputs": [
        {
          "internalType": "string",
          "name": "_batchId",
          "type": "string"
        }
      ],
      "name": "getSupplyChainParticipants",
      "outputs": [
        {
          "internalType": "address[]",
          "name": "participants",
          "type": "address[]"
        },
        {
          "internalType": "enum MedicineRegistry.ParticipantRole[]",
          "name": "roles",
          "type": "uint8[]"
        },
        {
          "internalType": "bool[]",
          "name": "hasVerified",
          "type": "bool[]"
        },
        {
          "internalType": "uint256[]",
          "name": "timestamps",
          "type": "uint256[]"
        }
      ],
      "stateMutability": "view",
      "type": "function"
    },
    {
      "inputs": [
        {
          "internalType": "string",
          "name": "_batchId",
          "type": "string"
        }
      ],
      "name": "getVerificationHistory",
      "outputs": [
        {
          "internalType": "address[]",
          "name": "verifiers",
          "type": "address[]"
        },
        {
          "internalType": "uint256[]",
          "name": "timestamps",
          "type": "uint256[]"
        },
        {
          "internalType": "string[]",
          "name": "locations",
          "type": "string[]"
        },
        {
          "internalType": "string[]",
          "name": "notes",
          "type": "string[]"
        }
      ],
      "stateMutability": "view",
      "type": "function"
    },
    {
      "inputs": [
        {
          "internalType": "bytes32",
          "name": "role",
          "type": "bytes32"
        },
        {
          "internalType": "address",
          "name": "account",
          "type": "address"
        }
      ],
      "name": "grantRole",
      "outputs": [],
      "stateMutability": "nonpayable",
      "type": "function"
    },
    {
      "inputs": [
        {
          "internalType": "bytes32",
          "name": "role",
          "type": "bytes32"
        },
        {
          "internalType": "address",
          "name": "account",
          "type": "address"
        }
      ],
      "name": "hasRole",
      "outputs": [
        {
          "internalType": "bool",
          "name": "",
          "type": "bool"
        }
      ],
      "stateMutability": "view",
      "type": "function"
    },
    {
      "inputs": [
        {
          "internalType": "address",
          "name": "",
          "type": "address"
        },
        {
          "internalType": "uint256",
          "name": "",
          "type": "uint256"
        }
      ],
      "name": "manufacturerBatches",
      "outputs": [
        {
          "internalType": "string",
          "name": "",
          "type": "string"
        }
      ],
      "stateMutability": "view",
      "type": "function"
    },
    {
      "inputs": [],
      "name": "mediToken",
      "outputs": [
        {
          "internalType": "contract IMediToken",
          "name": "",
          "type": "address"
        }
      ],
      "stateMutability": "view",
      "type": "function"
    },
    {
      "inputs": [
        {
          "internalType": "address",
          "name": "",
          "type": "address"
        },
        {
          "internalType": "uint256",
          "name": "",
          "type": "uint256"
        }
      ],
      "name": "participantBatches",
      "outputs": [
        {
          "internalType": "string",
          "name": "",
          "type": "string"
        }
      ],
      "stateMutability": "view",
      "type": "function"
    },
    {
      "inputs": [
        {
          "internalType": "string",
          "name": "_batchId",
          "type": "string"
        },
        {
          "internalType": "string",
          "name": "_drugName",
          "type": "string"
        },
        {
          "internalType": "string",
          "name": "_ingredients",
          "type": "string"
        },
        {
          "internalType": "uint256",
          "name": "_expiryDate",
          "type": "uint256"
        },
        {
          "internalType": "address[]",
          "name": "_participants",
          "type": "address[]"
        },
        {
          "internalType": "enum MedicineRegistry.ParticipantRole[]",
          "name": "_roles",
          "type": "uint8[]"
        },
        {
          "internalType": "string[]",
          "name": "_locations",
          "type": "string[]"
        }
      ],
      "name": "registerBatchWithSupplyChain",
      "outputs": [],
      "stateMutability": "nonpayable",
      "type": "function"
    },
    {
      "inputs": [
        {
          "internalType": "bytes32",
          "name": "role",
          "type": "bytes32"
        },
        {
          "internalType": "address",
          "name": "callerConfirmation",
          "type": "address"
        }
      ],
      "name": "renounceRole",
      "outputs": [],
      "stateMutability": "nonpayable",
      "type": "function"
    },
    {
      "inputs": [
        {
          "internalType": "bytes32",
          "name": "role",
          "type": "bytes32"
        },
        {
          "internalType": "address",
          "name": "account",
          "type": "address"
        }
      ],
      "name": "revokeRole",
      "outputs": [],
      "stateMutability": "nonpayable",
      "type": "function"
    },
    {
      "inputs": [
        {
          "internalType": "bytes4",
          "name": "interfaceId",
          "type": "bytes4"
        }
      ],
      "name": "supportsInterface",
      "outputs": [
        {
          "internalType": "bool",
          "name": "",
          "type": "bool"
        }
      ],
      "stateMutability": "view",
      "type": "function"
    },
    {
      "inputs": [
        {
          "internalType": "string",
          "name": "_batchId",
          "type": "string"
        },
        {
          "internalType": "address",
          "name": "_oldParticipant",
          "type": "address"
        },
        {
          "internalType": "address",
          "name": "_newParticipant",
          "type": "address"
        }
      ],
      "name": "updateParticipant",
      "outputs": [],
      "stateMutability": "nonpayable",
      "type": "function"
    },
    {
      "inputs": [
        {
          "internalType": "string",
          "name": "_batchId",
          "type": "string"
        },
        {
          "internalType": "string",
          "name": "_notes",
          "type": "string"
        },
        {
          "internalType": "bytes",
          "name": "_signature",
          "type": "bytes"
        }
      ],
      "name": "verifyBatchAsParticipant",
      "outputs": [],
      "stateMutability": "nonpayable",
      "type": "function"
    }
  ],
  "bytecode": "0x60806040523480156200001157600080fd5b506040516200317138038062003171833981016040819052620000349162000144565b60018055600580546001600160a01b0319166001600160a01b0383161790556200006060003362000095565b506200008d7feefb95e842a3287179d933b4460be539a1d5af11aa8b325bb45c5c8dc92de4ed3362000095565b505062000176565b6000828152602081815260408083206001600160a01b038516845290915281205460ff166200013a576000838152602081815260408083206001600160a01b03861684529091529020805460ff19166001179055620000f13390565b6001600160a01b0316826001600160a01b0316847f2f8788117e7eff1d82e926ec794901d17c78024a50270940304540a733656f0d60405160405180910390a45060016200013e565b5060005b92915050565b6000602082840312156200015757600080fd5b81516001600160a01b03811681146200016f57600080fd5b9392505050565b612feb80620001866000396000f3fe608060405234801561001057600080fd5b506004361061014d5760003560e01c806391d14854116100c3578063d96d97a51161007c578063d96d97a514610334578063e58dd2aa14610357578063e7705db61461036a578063e829b04114610391578063ee6a6d0e146103a4578063f3baf070146103f557600080fd5b806391d1485414610292578063965288b0146102a5578063a217fddf146102cc578063a5e8f634146102d4578063b838cafb146102fe578063d547741f1461032157600080fd5b80637037b1a7116101155780637037b1a7146101e25780637069fc74146101f55780637ef1446a146102085780638010c3ae1461023457806387c714631461024757806389ec0b8f1461026757600080fd5b806301ffc9a714610152578063248a9ca31461017a5780632f2ff15d146101ab57806336568abe146101c0578063504bc3cc146101d3575b600080fd5b610165610160366004612504565b6103fd565b60405190151581526020015b60405180910390f35b61019d610188366004612535565b60009081526020819052604090206001015490565b604051908152602001610171565b6101be6101b936600461256a565b610434565b005b6101be6101ce36600461256a565b61045f565b61019d670de0b6b3a764000081565b6101be6101f0366004612653565b610497565b6101be61020336600461268f565b6106e0565b61021b610216366004612653565b610b8f565b6040516101719d9c9b9a9998979695949392919061277a565b6101be6102423660046129ad565b610dae565b61025a610255366004612aac565b611502565b6040516101719190612ad6565b60055461027a906001600160a01b031681565b6040516001600160a01b039091168152602001610171565b6101656102a036600461256a565b6115bb565b61019d7feefb95e842a3287179d933b4460be539a1d5af11aa8b325bb45c5c8dc92de4ed81565b61019d600081565b6102e76102e2366004612ae9565b6115e4565b604080519215158352901515602083015201610171565b61031161030c366004612653565b6116fd565b6040516101719493929190612bd9565b6101be61032f36600461256a565b6119ff565b610347610342366004612653565b611a24565b6040516101719493929190612cd9565b61025a610365366004612aac565b611eb0565b61019d7f0ce23c3e399818cfee81a7ab0880f714e53d7672b08df0fa62f2843416e1ea0981565b6101be61039f366004612d26565b611ecc565b6103b76103b2366004612653565b612129565b604080519615158752941515602087015292151593850193909352606084015260808301919091526001600160a01b031660a082015260c001610171565b61019d601481565b60006001600160e01b03198216637965db0b60e01b148061042e57506301ffc9a760e01b6001600160e01b03198316145b92915050565b60008281526020819052604090206001015461044f81612197565b61045983836121a1565b50505050565b6001600160a01b03811633146104885760405163334bd91960e11b815260040160405180910390fd5b6104928282612233565b505050565b61049f61229e565b60006002826040516104b19190612d83565b908152604051908190036020019020600c81015490915060ff166104f05760405162461bcd60e51b81526004016104e790612d9f565b60405180910390fd5b600c810154610100900460ff166105555760405162461bcd60e51b8152602060048201526024808201527f537570706c7920636861696e20766572696669636174696f6e20696e636f6d706044820152636c65746560e01b60648201526084016104e7565b600a81015460ff16156105a35760405162461bcd60e51b815260206004820152601660248201527514995dd85c9908185b1c9958591e4818db185a5b595960521b60448201526064016104e7565b428160040154116105e95760405162461bcd60e51b815260206004820152601060248201526f1359591a58da5b9948195e1c1a5c995960821b60448201526064016104e7565b600a810180543361010081026001600160a81b03199092169190911760011790915542600b8301556005546040516340c10f1960e01b81526004810192909252670de0b6b3a764000060248301526001600160a01b0316906340c10f1990604401600060405180830381600087803b15801561066457600080fd5b505af1158015610678573d6000803e3d6000fd5b505060405133925061068c91508490612d83565b60408051918290038220670de0b6b3a76400008352426020840152917fb55c5d24f032fde07ae43e1c485a5204d17225fc7d79318955976775412338f4910160405180910390a3506106dd60018055565b50565b6106e861229e565b60006002846040516106fa9190612d83565b908152604051908190036020019020600c81015490915060ff166107305760405162461bcd60e51b81526004016104e790612d9f565b600a81015460ff16156107915760405162461bcd60e51b815260206004820152602360248201527f426174636820616c72656164792064656c69766572656420746f20637573746f60448201526236b2b960e91b60648201526084016104e7565b33600090815260078201602052604090205460ff166107f25760405162461bcd60e51b815260206004820152601a60248201527f4e6f7420617574686f72697a6564207061727469636970616e7400000000000060448201526064016104e7565b600084334260405160200161080993929190612dcd565b604051602081830303815290604052805190602001209050600061085a827f19457468657265756d205369676e6564204d6573736167653a0a3332000000006000908152601c91909152603c902090565b9050600061086882866122c8565b90506001600160a01b03811633146108b65760405162461bcd60e51b8152602060048201526011602482015270496e76616c6964207369676e617475726560781b60448201526064016104e7565b60008060005b6006870154811015610a7857336001600160a01b03168760060182815481106108e7576108e7612e0c565b60009182526020909120600490910201546001600160a01b031603610a665786600601818154811061091b5761091b612e0c565b6000918252602090912060049091020154600160a81b900460ff16156109765760405162461bcd60e51b815260206004820152601060248201526f105b1c9958591e481d995c9a599a595960821b60448201526064016104e7565b600187600601828154811061098d5761098d612e0c565b906000526020600020906004020160000160156101000a81548160ff021916908315150217905550428760060182815481106109cb576109cb612e0c565b906000526020600020906004020160010181905550888760060182815481106109f6576109f6612e0c565b90600052602060002090600402016003019081610a139190612ea2565b50600987018054906000610a2683612f61565b9190505550866006018181548110610a4057610a40612e0c565b600091825260209091206004909102015460019350600160a01b900460ff169150610a78565b80610a7081612f61565b9150506108bc565b5081610abc5760405162461bcd60e51b815260206004820152601360248201527215995c9a599a58d85d1a5bdb8819985a5b1959606a1b60448201526064016104e7565b6040513390610acc908b90612d83565b60405180910390207f36007a401bce1db31823d520649f66714a8006e1fe3d7e62b17b01e0e7c138cc8389600901548a60080154604051610b0f93929190612f88565b60405180910390a38560080154866009015403610b8057600c8601805461ff001916610100179055604051610b45908a90612d83565b604051908190038120428252907f65cef3a6702469117c0b8570219f54ee19f5025d27673b1450617f83c2ad75de9060200160405180910390a25b50505050505061049260018055565b8051602081830181018051600282529282019190930120915280546001820180546001600160a01b039092169291610bc690612e22565b80601f0160208091040260200160405190810160405280929190818152602001828054610bf290612e22565b8015610c3f5780601f10610c1457610100808354040283529160200191610c3f565b820191906000526020600020905b815481529060010190602001808311610c2257829003601f168201915b505050505090806002018054610c5490612e22565b80601f0160208091040260200160405190810160405280929190818152602001828054610c8090612e22565b8015610ccd5780601f10610ca257610100808354040283529160200191610ccd565b820191906000526020600020905b815481529060010190602001808311610cb057829003601f168201915b505050505090806003018054610ce290612e22565b80601f0160208091040260200160405190810160405280929190818152602001828054610d0e90612e22565b8015610d5b5780601f10610d3057610100808354040283529160200191610d5b565b820191906000526020600020905b815481529060010190602001808311610d3e57829003601f168201915b5050506004840154600585015460088601546009870154600a880154600b890154600c90990154979894979396509194509260ff808316936001600160a01b03610100948590041693818316929104168d565b7feefb95e842a3287179d933b4460be539a1d5af11aa8b325bb45c5c8dc92de4ed610dd881612197565b600288604051610de89190612d83565b908152604051908190036020019020600c015460ff1615610e425760405162461bcd60e51b8152602060048201526014602482015273426174636820616c72656164792065786973747360601b60448201526064016104e7565b8251845114610e875760405162461bcd60e51b81526020600482015260116024820152704d69736d6174636865642061727261797360781b60448201526064016104e7565b8151845114610ecf5760405162461bcd60e51b81526020600482015260146024820152734d69736d617463686564206c6f636174696f6e7360601b60448201526064016104e7565b601484511115610f195760405162461bcd60e51b8152602060048201526015602482015274546f6f206d616e79207061727469636970616e747360581b60448201526064016104e7565b6000845111610f745760405162461bcd60e51b815260206004820152602160248201527f4174206c65617374206f6e65207061727469636970616e7420726571756972656044820152601960fa1b60648201526084016104e7565b428511610fc35760405162461bcd60e51b815260206004820152601d60248201527f4578706972792064617465206d75737420626520696e2066757475726500000060448201526064016104e7565b6000600289604051610fd59190612d83565b90815260405190819003602001902080546001600160a01b031916331781559050600181016110048a82612ea2565b50600281016110138982612ea2565b50600381016110228882612ea2565b5060048101869055426005820155600c810180548651600884015560006009840181905561ffff19909116600117909155600a8201805460ff191690555b855181101561147c5760006001600160a01b031686828151811061108657611086612e0c565b60200260200101516001600160a01b0316036110e45760405162461bcd60e51b815260206004820152601b60248201527f496e76616c6964207061727469636970616e742061646472657373000000000060448201526064016104e7565b60008582815181106110f8576110f8612e0c565b6020026020010151600581111561111157611111612b71565b0361114d5760405162461bcd60e51b815260206004820152600c60248201526b496e76616c696420726f6c6560a01b60448201526064016104e7565b81600701600087838151811061116557611165612e0c565b6020908102919091018101516001600160a01b031682528101919091526040016000205460ff16156111d15760405162461bcd60e51b8152602060048201526015602482015274111d5c1b1a58d85d19481c185c9d1a58da5c185b9d605a1b60448201526064016104e7565b816006016040518060c001604052808884815181106111f2576111f2612e0c565b60200260200101516001600160a01b0316815260200187848151811061121a5761121a612e0c565b6020026020010151600581111561123357611233612b71565b81526020016000151581526020016000815260200186848151811061125a5761125a612e0c565b602090810291909101810151825260408051808301909152600080825292820152835460018101855593825290819020825160049094020180546001600160a01b039094166001600160a01b031985168117825591830151929390929183916001600160a81b03191617600160a01b8360058111156112db576112db612b71565b021790555060408201518154901515600160a81b0260ff60a81b19909116178155606082015160018201556080820151600282019061131a9082612ea2565b5060a0820151600382019061132f9082612ea2565b505050600182600701600088848151811061134c5761134c612e0c565b60200260200101516001600160a01b03166001600160a01b0316815260200190815260200160002060006101000a81548160ff021916908315150217905550600460008783815181106113a1576113a1612e0c565b6020908102919091018101516001600160a01b031682528181019290925260400160009081208054600181018255908252919020016113e08b82612ea2565b508581815181106113f3576113f3612e0c565b60200260200101516001600160a01b03168a6040516114129190612d83565b60405180910390207f6b7a69a77940fa31671b50a4966820b5ed7889f9dde2c78c2bf2d7e00b20c9d087848151811061144d5761144d612e0c565b60200260200101516040516114629190612fa7565b60405180910390a38061147481612f61565b915050611060565b50336000908152600360209081526040822080546001810182559083529120016114a68a82612ea2565b5060405133906114b7908b90612d83565b6040805191829003822088518352426020840152917faaed3963d690ad719845c971af2818fddeefa8e32d2ea5bd2391ba5fcc3131f4910160405180910390a3505050505050505050565b6003602052816000526040600020818154811061151e57600080fd5b9060005260206000200160009150915050805461153a90612e22565b80601f016020809104026020016040519081016040528092919081815260200182805461156690612e22565b80156115b35780601f10611588576101008083540402835291602001916115b3565b820191906000526020600020905b81548152906001019060200180831161159657829003601f168201915b505050505081565b6000918252602082815260408084206001600160a01b0393909316845291905290205460ff1690565b60008060006002856040516115f99190612d83565b908152604051908190036020019020600c81015490915060ff16158061163a57506001600160a01b038416600090815260078201602052604090205460ff16155b1561164c5760008092509250506116f6565b60005b60068201548110156116ec57846001600160a01b031682600601828154811061167a5761167a612e0c565b60009182526020909120600490910201546001600160a01b0316036116da5760018260060182815481106116b0576116b0612e0c565b906000526020600020906004020160000160159054906101000a900460ff169350935050506116f6565b806116e481612f61565b91505061164f565b5060008092509250505b9250929050565b60608060608060006002866040516117159190612d83565b908152604051908190036020019020600c81015490915060ff1661174b5760405162461bcd60e51b81526004016104e790612d9f565b6006810154806001600160401b0381111561176857611768612596565b604051908082528060200260200182016040528015611791578160200160208202803683370190505b509550806001600160401b038111156117ac576117ac612596565b6040519080825280602002602001820160405280156117d5578160200160208202803683370190505b509450806001600160401b038111156117f0576117f0612596565b604051908082528060200260200182016040528015611819578160200160208202803683370190505b509350806001600160401b0381111561183457611834612596565b60405190808252806020026020018201604052801561185d578160200160208202803683370190505b50925060005b818110156119f55782600601818154811061188057611880612e0c565b600091825260209091206004909102015487516001600160a01b03909116908890839081106118b1576118b1612e0c565b60200260200101906001600160a01b031690816001600160a01b0316815250508260060181815481106118e6576118e6612e0c565b906000526020600020906004020160000160149054906101000a900460ff1686828151811061191757611917612e0c565b6020026020010190600581111561193057611930612b71565b9081600581111561194357611943612b71565b8152505082600601818154811061195c5761195c612e0c565b906000526020600020906004020160000160159054906101000a900460ff1685828151811061198d5761198d612e0c565b6020026020010190151590811515815250508260060181815481106119b4576119b4612e0c565b9060005260206000209060040201600101548482815181106119d8576119d8612e0c565b6020908102919091010152806119ed81612f61565b915050611863565b5050509193509193565b600082815260208190526040902060010154611a1a81612197565b6104598383612233565b6060806060806000600286604051611a3c9190612d83565b908152604051908190036020019020600c81015490915060ff16611a725760405162461bcd60e51b81526004016104e790612d9f565b6000805b6006830154811015611ad757826006018181548110611a9757611a97612e0c565b6000918252602090912060049091020154600160a81b900460ff1615611ac55781611ac181612f61565b9250505b80611acf81612f61565b915050611a76565b50806001600160401b03811115611af057611af0612596565b604051908082528060200260200182016040528015611b19578160200160208202803683370190505b509550806001600160401b03811115611b3457611b34612596565b604051908082528060200260200182016040528015611b5d578160200160208202803683370190505b509450806001600160401b03811115611b7857611b78612596565b604051908082528060200260200182016040528015611bab57816020015b6060815260200190600190039081611b965790505b509350806001600160401b03811115611bc657611bc6612596565b604051908082528060200260200182016040528015611bf957816020015b6060815260200190600190039081611be45790505b5092506000805b6006840154811015611ea557836006018181548110611c2157611c21612e0c565b6000918252602090912060049091020154600160a81b900460ff1615611e9357836006018181548110611c5657611c56612e0c565b600091825260209091206004909102015488516001600160a01b0390911690899084908110611c8757611c87612e0c565b60200260200101906001600160a01b031690816001600160a01b031681525050836006018181548110611cbc57611cbc612e0c565b906000526020600020906004020160010154878381518110611ce057611ce0612e0c565b602002602001018181525050836006018181548110611d0157611d01612e0c565b90600052602060002090600402016002018054611d1d90612e22565b80601f0160208091040260200160405190810160405280929190818152602001828054611d4990612e22565b8015611d965780601f10611d6b57610100808354040283529160200191611d96565b820191906000526020600020905b815481529060010190602001808311611d7957829003601f168201915b5050505050868381518110611dad57611dad612e0c565b6020026020010181905250836006018181548110611dcd57611dcd612e0c565b90600052602060002090600402016003018054611de990612e22565b80601f0160208091040260200160405190810160405280929190818152602001828054611e1590612e22565b8015611e625780601f10611e3757610100808354040283529160200191611e62565b820191906000526020600020905b815481529060010190602001808311611e4557829003601f168201915b5050505050858381518110611e7957611e79612e0c565b60200260200101819052508180611e8f90612f61565b9250505b80611e9d81612f61565b915050611c00565b505050509193509193565b6004602052816000526040600020818154811061151e57600080fd5b7feefb95e842a3287179d933b4460be539a1d5af11aa8b325bb45c5c8dc92de4ed611ef681612197565b6000600285604051611f089190612d83565b908152604051908190036020019020600c81015490915060ff16611f3e5760405162461bcd60e51b81526004016104e790612d9f565b80546001600160a01b03163314611f895760405162461bcd60e51b815260206004820152600f60248201526e2737ba103130ba31b41037bbb732b960891b60448201526064016104e7565b600a81015460ff1615611fde5760405162461bcd60e51b815260206004820152601760248201527f426174636820616c72656164792064656c69766572656400000000000000000060448201526064016104e7565b60005b600682015481101561212157846001600160a01b031682600601828154811061200c5761200c612e0c565b60009182526020909120600490910201546001600160a01b03160361210f5781600601818154811061204057612040612e0c565b6000918252602090912060049091020154600160a81b900460ff161561209b5760405162461bcd60e51b815260206004820152601060248201526f105b1c9958591e481d995c9a599a595960821b60448201526064016104e7565b838260060182815481106120b1576120b1612e0c565b6000918252602080832060049290920290910180546001600160a01b0319166001600160a01b0394851617905587831682526007850190526040808220805460ff199081169091559287168252902080549091166001179055612121565b8061211981612f61565b915050611fe1565b505050505050565b60008060008060008060006002886040516121449190612d83565b908152604051908190036020019020600c810154600a820154600983015460089093015460ff8084169d6101009485900482169d509083169b5093995097506001600160a01b0391900416945092505050565b6106dd81336122f2565b60006121ad83836115bb565b61222b576000838152602081815260408083206001600160a01b03861684529091529020805460ff191660011790556121e33390565b6001600160a01b0316826001600160a01b0316847f2f8788117e7eff1d82e926ec794901d17c78024a50270940304540a733656f0d60405160405180910390a450600161042e565b50600061042e565b600061223f83836115bb565b1561222b576000838152602081815260408083206001600160a01b0386168085529252808320805460ff1916905551339286917ff6391f5c32d9c69d2a47ea670b442974b53935d1edc7fd64eb21e047a839171b9190a450600161042e565b6002600154036122c157604051633ee5aeb560e01b815260040160405180910390fd5b6002600155565b6000806000806122d8868661232f565b9250925092506122e8828261237c565b5090949350505050565b6122fc82826115bb565b61232b5760405163e2517d3f60e01b81526001600160a01b0382166004820152602481018390526044016104e7565b5050565b600080600083516041036123695760208401516040850151606086015160001a61235b88828585612435565b955095509550505050612375565b50508151600091506002905b9250925092565b600082600381111561239057612390612b71565b03612399575050565b60018260038111156123ad576123ad612b71565b036123cb5760405163f645eedf60e01b815260040160405180910390fd5b60028260038111156123df576123df612b71565b036124005760405163fce698f760e01b8152600481018290526024016104e7565b600382600381111561241457612414612b71565b0361232b576040516335e2f38360e21b8152600481018290526024016104e7565b600080807f7fffffffffffffffffffffffffffffff5d576e7357a4501ddfe92f46681b20a084111561247057506000915060039050826124fa565b604080516000808252602082018084528a905260ff891692820192909252606081018790526080810186905260019060a0016020604051602081039080840390855afa1580156124c4573d6000803e3d6000fd5b5050604051601f1901519150506001600160a01b0381166124f0575060009250600191508290506124fa565b9250600091508190505b9450945094915050565b60006020828403121561251657600080fd5b81356001600160e01b03198116811461252e57600080fd5b9392505050565b60006020828403121561254757600080fd5b5035919050565b80356001600160a01b038116811461256557600080fd5b919050565b6000806040838503121561257d57600080fd5b8235915061258d6020840161254e565b90509250929050565b634e487b7160e01b600052604160045260246000fd5b604051601f8201601f191681016001600160401b03811182821017156125d4576125d4612596565b604052919050565b60006001600160401b038311156125f5576125f5612596565b612608601f8401601f19166020016125ac565b905082815283838301111561261c57600080fd5b828260208301376000602084830101529392505050565b600082601f83011261264457600080fd5b61252e838335602085016125dc565b60006020828403121561266557600080fd5b81356001600160401b0381111561267b57600080fd5b61268784828501612633565b949350505050565b6000806000606084860312156126a457600080fd5b83356001600160401b03808211156126bb57600080fd5b6126c787838801612633565b945060208601359150808211156126dd57600080fd5b6126e987838801612633565b935060408601359150808211156126ff57600080fd5b508401601f8101861361271157600080fd5b612720868235602084016125dc565b9150509250925092565b60005b8381101561274557818101518382015260200161272d565b50506000910152565b6000815180845261276681602086016020860161272a565b601f01601f19169290920160200192915050565b6001600160a01b038e1681526101a06020820181905260009061279f9083018f61274e565b82810360408401526127b1818f61274e565b905082810360608401526127c5818e61274e565b9150508a60808301528960a08301528860c08301528760e08301526127ef61010083018815159052565b6001600160a01b0386166101208301528461014083015261281561016083018515159052565b8215156101808301529e9d5050505050505050505050505050565b60006001600160401b0382111561284957612849612596565b5060051b60200190565b600082601f83011261286457600080fd5b8135602061287961287483612830565b6125ac565b82815260059290921b8401810191818101908684111561289857600080fd5b8286015b848110156128ba576128ad8161254e565b835291830191830161289c565b509695505050505050565b600082601f8301126128d657600080fd5b813560206128e661287483612830565b82815260059290921b8401810191818101908684111561290557600080fd5b8286015b848110156128ba578035600681106129215760008081fd5b8352918301918301612909565b600082601f83011261293f57600080fd5b8135602061294f61287483612830565b82815260059290921b8401810191818101908684111561296e57600080fd5b8286015b848110156128ba5780356001600160401b038111156129915760008081fd5b61299f8986838b0101612633565b845250918301918301612972565b600080600080600080600060e0888a0312156129c857600080fd5b87356001600160401b03808211156129df57600080fd5b6129eb8b838c01612633565b985060208a0135915080821115612a0157600080fd5b612a0d8b838c01612633565b975060408a0135915080821115612a2357600080fd5b612a2f8b838c01612633565b965060608a0135955060808a0135915080821115612a4c57600080fd5b612a588b838c01612853565b945060a08a0135915080821115612a6e57600080fd5b612a7a8b838c016128c5565b935060c08a0135915080821115612a9057600080fd5b50612a9d8a828b0161292e565b91505092959891949750929550565b60008060408385031215612abf57600080fd5b612ac88361254e565b946020939093013593505050565b60208152600061252e602083018461274e565b60008060408385031215612afc57600080fd5b82356001600160401b03811115612b1257600080fd5b612b1e85828601612633565b92505061258d6020840161254e565b600081518084526020808501945080840160005b83811015612b665781516001600160a01b031687529582019590820190600101612b41565b509495945050505050565b634e487b7160e01b600052602160045260246000fd5b60068110612ba557634e487b7160e01b600052602160045260246000fd5b9052565b600081518084526020808501945080840160005b83811015612b6657815187529582019590820190600101612bbd565b608081526000612bec6080830187612b2d565b82810360208481019190915286518083528782019282019060005b81811015612c2a57612c1a838651612b87565b9383019391830191600101612c07565b50508481036040860152865180825290820192508187019060005b81811015612c63578251151585529383019391830191600101612c45565b505050508281036060840152612c798185612ba9565b979650505050505050565b600081518084526020808501808196508360051b8101915082860160005b85811015612ccc578284038952612cba84835161274e565b98850198935090840190600101612ca2565b5091979650505050505050565b608081526000612cec6080830187612b2d565b8281036020840152612cfe8187612ba9565b90508281036040840152612d128186612c84565b90508281036060840152612c798185612c84565b600080600060608486031215612d3b57600080fd5b83356001600160401b03811115612d5157600080fd5b612d5d86828701612633565b935050612d6c6020850161254e565b9150612d7a6040850161254e565b90509250925092565b60008251612d9581846020870161272a565b9190910192915050565b60208082526014908201527310985d18da08191bd95cc81b9bdd08195e1a5cdd60621b604082015260600190565b60008451612ddf81846020890161272a565b60609490941b6bffffffffffffffffffffffff191691909301908152601481019190915260340192915050565b634e487b7160e01b600052603260045260246000fd5b600181811c90821680612e3657607f821691505b602082108103612e5657634e487b7160e01b600052602260045260246000fd5b50919050565b601f82111561049257600081815260208120601f850160051c81016020861015612e835750805b601f850160051c820191505b8181101561212157828155600101612e8f565b81516001600160401b03811115612ebb57612ebb612596565b612ecf81612ec98454612e22565b84612e5c565b602080601f831160018114612f045760008415612eec5750858301515b600019600386901b1c1916600185901b178555612121565b600085815260208120601f198616915b82811015612f3357888601518255948401946001909101908401612f14565b5085821015612f515787850151600019600388901b60f8161c191681555b5050505050600190811b01905550565b600060018201612f8157634e487b7160e01b600052601160045260246000fd5b5060010190565b60608101612f968286612b87565b602082019390935260400152919050565b6020810161042e8284612b8756fea26469706673582212209e36fff391d510d98850234f4eec4148c7c0fa36772762c490003c1fc1b0914264736f6c63430008140033",
  "linkReferences": {},
  "deployedLinkReferences": {}
}